{
    "_format": "hh-sol-artifact-1",
    "contractName": "Survey",
    "sourceName": "contracts/Survey.sol",
    "abi": [
        {
            "inputs": [
                {
                    "internalType": "uint256",
                    "name": "_cooldownSeconds",
                    "type": "uint256"
                }
            ],
            "stateMutability": "nonpayable",
            "type": "constructor"
        },
        {
            "anonymous": false,
            "inputs": [
                {
                    "indexed": true,
                    "internalType": "address",
                    "name": "owner",
                    "type": "address"
                },
                {
                    "indexed": true,
                    "internalType": "address",
                    "name": "spender",
                    "type": "address"
                },
                {
                    "indexed": false,
                    "internalType": "uint256",
                    "name": "value",
                    "type": "uint256"
                }
            ],
            "name": "Approval",
            "type": "event"
        },
        {
            "anonymous": false,
            "inputs": [
                {
                    "indexed": true,
                    "internalType": "address",
                    "name": "previousOwner",
                    "type": "address"
                },
                {
                    "indexed": true,
                    "internalType": "address",
                    "name": "newOwner",
                    "type": "address"
                }
            ],
            "name": "OwnershipTransferred",
            "type": "event"
        },
        {
            "anonymous": false,
            "inputs": [
                {
                    "indexed": true,
                    "internalType": "address",
                    "name": "from",
                    "type": "address"
                },
                {
                    "indexed": true,
                    "internalType": "address",
                    "name": "to",
                    "type": "address"
                },
                {
                    "indexed": false,
                    "internalType": "uint256",
                    "name": "value",
                    "type": "uint256"
                }
            ],
            "name": "Transfer",
            "type": "event"
        },
        {
            "inputs": [
                {
                    "internalType": "address",
                    "name": "owner",
                    "type": "address"
                },
                {
                    "internalType": "address",
                    "name": "spender",
                    "type": "address"
                }
            ],
            "name": "allowance",
            "outputs": [
                {
                    "internalType": "uint256",
                    "name": "",
                    "type": "uint256"
                }
            ],
            "stateMutability": "view",
            "type": "function"
        },
        {
            "inputs": [
                {
                    "internalType": "address",
                    "name": "spender",
                    "type": "address"
                },
                {
                    "internalType": "uint256",
                    "name": "amount",
                    "type": "uint256"
                }
            ],
            "name": "approve",
            "outputs": [
                {
                    "internalType": "bool",
                    "name": "",
                    "type": "bool"
                }
            ],
            "stateMutability": "nonpayable",
            "type": "function"
        },
        {
            "inputs": [
                {
                    "internalType": "address",
                    "name": "account",
                    "type": "address"
                }
            ],
            "name": "balanceOf",
            "outputs": [
                {
                    "internalType": "uint256",
                    "name": "",
                    "type": "uint256"
                }
            ],
            "stateMutability": "view",
            "type": "function"
        },
        {
            "inputs": [],
            "name": "cooldownSeconds",
            "outputs": [
                {
                    "internalType": "uint256",
                    "name": "",
                    "type": "uint256"
                }
            ],
            "stateMutability": "view",
            "type": "function"
        },
        {
            "inputs": [],
            "name": "decimals",
            "outputs": [
                {
                    "internalType": "uint8",
                    "name": "",
                    "type": "uint8"
                }
            ],
            "stateMutability": "view",
            "type": "function"
        },
        {
            "inputs": [
                {
                    "internalType": "address",
                    "name": "spender",
                    "type": "address"
                },
                {
                    "internalType": "uint256",
                    "name": "subtractedValue",
                    "type": "uint256"
                }
            ],
            "name": "decreaseAllowance",
            "outputs": [
                {
                    "internalType": "bool",
                    "name": "",
                    "type": "bool"
                }
            ],
            "stateMutability": "nonpayable",
            "type": "function"
        },
        {
            "inputs": [
                {
                    "internalType": "address",
                    "name": "spender",
                    "type": "address"
                },
                {
                    "internalType": "uint256",
                    "name": "addedValue",
                    "type": "uint256"
                }
            ],
            "name": "increaseAllowance",
            "outputs": [
                {
                    "internalType": "bool",
                    "name": "",
                    "type": "bool"
                }
            ],
            "stateMutability": "nonpayable",
            "type": "function"
        },
        {
            "inputs": [
                {
                    "internalType": "address",
                    "name": "",
                    "type": "address"
                }
            ],
            "name": "lastSubmittal",
            "outputs": [
                {
                    "internalType": "uint256",
                    "name": "",
                    "type": "uint256"
                }
            ],
            "stateMutability": "view",
            "type": "function"
        },
        {
            "inputs": [],
            "name": "name",
            "outputs": [
                {
                    "internalType": "string",
                    "name": "",
                    "type": "string"
                }
            ],
            "stateMutability": "view",
            "type": "function"
        },
        {
            "inputs": [],
            "name": "owner",
            "outputs": [
                {
                    "internalType": "address",
                    "name": "",
                    "type": "address"
                }
            ],
            "stateMutability": "view",
            "type": "function"
        },
        {
            "inputs": [],
            "name": "renounceOwnership",
            "outputs": [],
            "stateMutability": "nonpayable",
            "type": "function"
        },
        {
            "inputs": [
                {
                    "internalType": "uint256",
                    "name": "_cooldownSeconds",
                    "type": "uint256"
                }
            ],
            "name": "setCooldown",
            "outputs": [],
            "stateMutability": "nonpayable",
            "type": "function"
        },
        {
            "inputs": [
                {
                    "internalType": "uint256",
                    "name": "_surveyId",
                    "type": "uint256"
                },
                {
                    "internalType": "uint256[]",
                    "name": "_answerIds",
                    "type": "uint256[]"
                }
            ],
            "name": "submit",
            "outputs": [],
            "stateMutability": "nonpayable",
            "type": "function"
        },
        {
            "inputs": [],
            "name": "symbol",
            "outputs": [
                {
                    "internalType": "string",
                    "name": "",
                    "type": "string"
                }
            ],
            "stateMutability": "view",
            "type": "function"
        },
        {
            "inputs": [],
            "name": "totalSupply",
            "outputs": [
                {
                    "internalType": "uint256",
                    "name": "",
                    "type": "uint256"
                }
            ],
            "stateMutability": "view",
            "type": "function"
        },
        {
            "inputs": [
                {
                    "internalType": "address",
                    "name": "to",
                    "type": "address"
                },
                {
                    "internalType": "uint256",
                    "name": "amount",
                    "type": "uint256"
                }
            ],
            "name": "transfer",
            "outputs": [
                {
                    "internalType": "bool",
                    "name": "",
                    "type": "bool"
                }
            ],
            "stateMutability": "nonpayable",
            "type": "function"
        },
        {
            "inputs": [
                {
                    "internalType": "address",
                    "name": "from",
                    "type": "address"
                },
                {
                    "internalType": "address",
                    "name": "to",
                    "type": "address"
                },
                {
                    "internalType": "uint256",
                    "name": "amount",
                    "type": "uint256"
                }
            ],
            "name": "transferFrom",
            "outputs": [
                {
                    "internalType": "bool",
                    "name": "",
                    "type": "bool"
                }
            ],
            "stateMutability": "nonpayable",
            "type": "function"
        },
        {
            "inputs": [
                {
                    "internalType": "address",
                    "name": "newOwner",
                    "type": "address"
                }
            ],
            "name": "transferOwnership",
            "outputs": [],
            "stateMutability": "nonpayable",
            "type": "function"
        }
    ],
    "bytecode": "0x60806040523480156200001157600080fd5b50604051620020253803806200202583398181016040528101906200003791906200029a565b6040518060400160405280600a81526020017f5175697a20546f6b656e000000000000000000000000000000000000000000008152506040518060400160405280600481526020017f5155495a000000000000000000000000000000000000000000000000000000008152508160039080519060200190620000bb929190620001d3565b508060049080519060200190620000d4929190620001d3565b505050620000f7620000eb6200010560201b60201c565b6200010d60201b60201c565b80600681905550506200034f565b600033905090565b6000600560009054906101000a900473ffffffffffffffffffffffffffffffffffffffff16905081600560006101000a81548173ffffffffffffffffffffffffffffffffffffffff021916908373ffffffffffffffffffffffffffffffffffffffff1602179055508173ffffffffffffffffffffffffffffffffffffffff168173ffffffffffffffffffffffffffffffffffffffff167f8be0079c531659141344cd1fd0a4f28419497f9722a3daafe3b4186f6b6457e060405160405180910390a35050565b828054620001e190620002d0565b90600052602060002090601f01602090048101928262000205576000855562000251565b82601f106200022057805160ff191683800117855562000251565b8280016001018555821562000251579182015b828111156200025057825182559160200191906001019062000233565b5b50905062000260919062000264565b5090565b5b808211156200027f57600081600090555060010162000265565b5090565b600081519050620002948162000335565b92915050565b600060208284031215620002ad57600080fd5b6000620002bd8482850162000283565b91505092915050565b6000819050919050565b60006002820490506001821680620002e957607f821691505b602082108114156200030057620002ff62000306565b5b50919050565b7f4e487b7100000000000000000000000000000000000000000000000000000000600052602260045260246000fd5b6200034081620002c6565b81146200034c57600080fd5b50565b611cc6806200035f6000396000f3fe608060405234801561001057600080fd5b50600436106101165760003560e01c8063715018a6116100a2578063a457c2d711610071578063a457c2d7146102e3578063a9059cbb14610313578063b8221bc414610343578063dd62ed3e14610361578063f2fde38b1461039157610116565b8063715018a61461026d5780638da5cb5b1461027757806395d89b411461029557806399036e2e146102b357610116565b80632f344195116100e95780632f344195146101b7578063313ce567146101d357806339509351146101f15780634fc3f41a1461022157806370a082311461023d57610116565b806306fdde031461011b578063095ea7b31461013957806318160ddd1461016957806323b872dd14610187575b600080fd5b6101236103ad565b6040516101309190611591565b60405180910390f35b610153600480360381019061014e91906112ac565b61043f565b6040516101609190611576565b60405180910390f35b610171610462565b60405161017e9190611713565b60405180910390f35b6101a1600480360381019061019c919061125d565b61046c565b6040516101ae9190611576565b60405180910390f35b6101d160048036038101906101cc9190611311565b61049b565b005b6101db610613565b6040516101e8919061172e565b60405180910390f35b61020b600480360381019061020691906112ac565b61061c565b6040516102189190611576565b60405180910390f35b61023b600480360381019061023691906112e8565b610653565b005b610257600480360381019061025291906111f8565b610665565b6040516102649190611713565b60405180910390f35b6102756106ad565b005b61027f6106c1565b60405161028c919061155b565b60405180910390f35b61029d6106eb565b6040516102aa9190611591565b60405180910390f35b6102cd60048036038101906102c891906111f8565b61077d565b6040516102da9190611713565b60405180910390f35b6102fd60048036038101906102f891906112ac565b610795565b60405161030a9190611576565b60405180910390f35b61032d600480360381019061032891906112ac565b61080c565b60405161033a9190611576565b60405180910390f35b61034b61082f565b6040516103589190611713565b60405180910390f35b61037b60048036038101906103769190611221565b610835565b6040516103889190611713565b60405180910390f35b6103ab60048036038101906103a691906111f8565b6108bc565b005b6060600380546103bc90611894565b80601f01602080910402602001604051908101604052809291908181526020018280546103e890611894565b80156104355780601f1061040a57610100808354040283529160200191610435565b820191906000526020600020905b81548152906001019060200180831161041857829003601f168201915b5050505050905090565b60008061044a610940565b9050610457818585610948565b600191505092915050565b6000600254905090565b600080610477610940565b9050610484858285610b13565b61048f858585610b9f565b60019150509392505050565b600654600760003373ffffffffffffffffffffffffffffffffffffffff1673ffffffffffffffffffffffffffffffffffffffff168152602001908152602001600020546104e891906117b6565b4211610529576040517f08c379a000000000000000000000000000000000000000000000000000000000815260040161052090611653565b60405180910390fd5b42600760003373ffffffffffffffffffffffffffffffffffffffff1673ffffffffffffffffffffffffffffffffffffffff168152602001908152602001600020819055506000600860003373ffffffffffffffffffffffffffffffffffffffff1673ffffffffffffffffffffffffffffffffffffffff1681526020019081526020016000206000848152602001908152602001600020905080829080600181540180825580915050600190039060005260206000200160009091909190915090805190602001906105fb9291906110ce565b5061060e33670de0b6b3a7640000610e20565b505050565b60006012905090565b600080610627610940565b90506106488185856106398589610835565b61064391906117b6565b610948565b600191505092915050565b61065b610f80565b8060068190555050565b60008060008373ffffffffffffffffffffffffffffffffffffffff1673ffffffffffffffffffffffffffffffffffffffff168152602001908152602001600020549050919050565b6106b5610f80565b6106bf6000610ffe565b565b6000600560009054906101000a900473ffffffffffffffffffffffffffffffffffffffff16905090565b6060600480546106fa90611894565b80601f016020809104026020016040519081016040528092919081815260200182805461072690611894565b80156107735780601f1061074857610100808354040283529160200191610773565b820191906000526020600020905b81548152906001019060200180831161075657829003601f168201915b5050505050905090565b60076020528060005260406000206000915090505481565b6000806107a0610940565b905060006107ae8286610835565b9050838110156107f3576040517f08c379a00000000000000000000000000000000000000000000000000000000081526004016107ea906116d3565b60405180910390fd5b6108008286868403610948565b60019250505092915050565b600080610817610940565b9050610824818585610b9f565b600191505092915050565b60065481565b6000600160008473ffffffffffffffffffffffffffffffffffffffff1673ffffffffffffffffffffffffffffffffffffffff16815260200190815260200160002060008373ffffffffffffffffffffffffffffffffffffffff1673ffffffffffffffffffffffffffffffffffffffff16815260200190815260200160002054905092915050565b6108c4610f80565b600073ffffffffffffffffffffffffffffffffffffffff168173ffffffffffffffffffffffffffffffffffffffff161415610934576040517f08c379a000000000000000000000000000000000000000000000000000000000815260040161092b906115d3565b60405180910390fd5b61093d81610ffe565b50565b600033905090565b600073ffffffffffffffffffffffffffffffffffffffff168373ffffffffffffffffffffffffffffffffffffffff1614156109b8576040517f08c379a00000000000000000000000000000000000000000000000000000000081526004016109af906116b3565b60405180910390fd5b600073ffffffffffffffffffffffffffffffffffffffff168273ffffffffffffffffffffffffffffffffffffffff161415610a28576040517f08c379a0000000000000000000000000000000000000000000000000000000008152600401610a1f906115f3565b60405180910390fd5b80600160008573ffffffffffffffffffffffffffffffffffffffff1673ffffffffffffffffffffffffffffffffffffffff16815260200190815260200160002060008473ffffffffffffffffffffffffffffffffffffffff1673ffffffffffffffffffffffffffffffffffffffff168152602001908152602001600020819055508173ffffffffffffffffffffffffffffffffffffffff168373ffffffffffffffffffffffffffffffffffffffff167f8c5be1e5ebec7d5bd14f71427d1e84f3dd0314c0f7b2291e5b200ac8c7c3b92583604051610b069190611713565b60405180910390a3505050565b6000610b1f8484610835565b90507fffffffffffffffffffffffffffffffffffffffffffffffffffffffffffffffff8114610b995781811015610b8b576040517f08c379a0000000000000000000000000000000000000000000000000000000008152600401610b8290611613565b60405180910390fd5b610b988484848403610948565b5b50505050565b600073ffffffffffffffffffffffffffffffffffffffff168373ffffffffffffffffffffffffffffffffffffffff161415610c0f576040517f08c379a0000000000000000000000000000000000000000000000000000000008152600401610c0690611693565b60405180910390fd5b600073ffffffffffffffffffffffffffffffffffffffff168273ffffffffffffffffffffffffffffffffffffffff161415610c7f576040517f08c379a0000000000000000000000000000000000000000000000000000000008152600401610c76906115b3565b60405180910390fd5b610c8a8383836110c4565b60008060008573ffffffffffffffffffffffffffffffffffffffff1673ffffffffffffffffffffffffffffffffffffffff16815260200190815260200160002054905081811015610d10576040517f08c379a0000000000000000000000000000000000000000000000000000000008152600401610d0790611633565b60405180910390fd5b8181036000808673ffffffffffffffffffffffffffffffffffffffff1673ffffffffffffffffffffffffffffffffffffffff16815260200190815260200160002081905550816000808573ffffffffffffffffffffffffffffffffffffffff1673ffffffffffffffffffffffffffffffffffffffff1681526020019081526020016000206000828254610da391906117b6565b925050819055508273ffffffffffffffffffffffffffffffffffffffff168473ffffffffffffffffffffffffffffffffffffffff167fddf252ad1be2c89b69c2b068fc378daa952ba7f163c4a11628f55a4df523b3ef84604051610e079190611713565b60405180910390a3610e1a8484846110c9565b50505050565b600073ffffffffffffffffffffffffffffffffffffffff168273ffffffffffffffffffffffffffffffffffffffff161415610e90576040517f08c379a0000000000000000000000000000000000000000000000000000000008152600401610e87906116f3565b60405180910390fd5b610e9c600083836110c4565b8060026000828254610eae91906117b6565b92505081905550806000808473ffffffffffffffffffffffffffffffffffffffff1673ffffffffffffffffffffffffffffffffffffffff1681526020019081526020016000206000828254610f0391906117b6565b925050819055508173ffffffffffffffffffffffffffffffffffffffff16600073ffffffffffffffffffffffffffffffffffffffff167fddf252ad1be2c89b69c2b068fc378daa952ba7f163c4a11628f55a4df523b3ef83604051610f689190611713565b60405180910390a3610f7c600083836110c9565b5050565b610f88610940565b73ffffffffffffffffffffffffffffffffffffffff16610fa66106c1565b73ffffffffffffffffffffffffffffffffffffffff1614610ffc576040517f08c379a0000000000000000000000000000000000000000000000000000000008152600401610ff390611673565b60405180910390fd5b565b6000600560009054906101000a900473ffffffffffffffffffffffffffffffffffffffff16905081600560006101000a81548173ffffffffffffffffffffffffffffffffffffffff021916908373ffffffffffffffffffffffffffffffffffffffff1602179055508173ffffffffffffffffffffffffffffffffffffffff168173ffffffffffffffffffffffffffffffffffffffff167f8be0079c531659141344cd1fd0a4f28419497f9722a3daafe3b4186f6b6457e060405160405180910390a35050565b505050565b505050565b82805482825590600052602060002090810192821561110a579160200282015b828111156111095782518255916020019190600101906110ee565b5b509050611117919061111b565b5090565b5b8082111561113457600081600090555060010161111c565b5090565b600061114b6111468461176e565b611749565b9050808382526020820190508285602086028201111561116a57600080fd5b60005b8581101561119a578161118088826111e3565b84526020840193506020830192505060018101905061116d565b5050509392505050565b6000813590506111b381611c62565b92915050565b600082601f8301126111ca57600080fd5b81356111da848260208601611138565b91505092915050565b6000813590506111f281611c79565b92915050565b60006020828403121561120a57600080fd5b6000611218848285016111a4565b91505092915050565b6000806040838503121561123457600080fd5b6000611242858286016111a4565b9250506020611253858286016111a4565b9150509250929050565b60008060006060848603121561127257600080fd5b6000611280868287016111a4565b9350506020611291868287016111a4565b92505060406112a2868287016111e3565b9150509250925092565b600080604083850312156112bf57600080fd5b60006112cd858286016111a4565b92505060206112de858286016111e3565b9150509250929050565b6000602082840312156112fa57600080fd5b6000611308848285016111e3565b91505092915050565b6000806040838503121561132457600080fd5b6000611332858286016111e3565b925050602083013567ffffffffffffffff81111561134f57600080fd5b61135b858286016111b9565b9150509250929050565b61136e8161180c565b82525050565b61137d8161181e565b82525050565b600061138e8261179a565b61139881856117a5565b93506113a8818560208601611861565b6113b181611984565b840191505092915050565b60006113c96023836117a5565b91506113d482611995565b604082019050919050565b60006113ec6026836117a5565b91506113f7826119e4565b604082019050919050565b600061140f6022836117a5565b915061141a82611a33565b604082019050919050565b6000611432601d836117a5565b915061143d82611a82565b602082019050919050565b60006114556026836117a5565b915061146082611aab565b604082019050919050565b6000611478601c836117a5565b915061148382611afa565b602082019050919050565b600061149b6020836117a5565b91506114a682611b23565b602082019050919050565b60006114be6025836117a5565b91506114c982611b4c565b604082019050919050565b60006114e16024836117a5565b91506114ec82611b9b565b604082019050919050565b60006115046025836117a5565b915061150f82611bea565b604082019050919050565b6000611527601f836117a5565b915061153282611c39565b602082019050919050565b6115468161184a565b82525050565b61155581611854565b82525050565b60006020820190506115706000830184611365565b92915050565b600060208201905061158b6000830184611374565b92915050565b600060208201905081810360008301526115ab8184611383565b905092915050565b600060208201905081810360008301526115cc816113bc565b9050919050565b600060208201905081810360008301526115ec816113df565b9050919050565b6000602082019050818103600083015261160c81611402565b9050919050565b6000602082019050818103600083015261162c81611425565b9050919050565b6000602082019050818103600083015261164c81611448565b9050919050565b6000602082019050818103600083015261166c8161146b565b9050919050565b6000602082019050818103600083015261168c8161148e565b9050919050565b600060208201905081810360008301526116ac816114b1565b9050919050565b600060208201905081810360008301526116cc816114d4565b9050919050565b600060208201905081810360008301526116ec816114f7565b9050919050565b6000602082019050818103600083015261170c8161151a565b9050919050565b6000602082019050611728600083018461153d565b92915050565b6000602082019050611743600083018461154c565b92915050565b6000611753611764565b905061175f82826118c6565b919050565b6000604051905090565b600067ffffffffffffffff82111561178957611788611955565b5b602082029050602081019050919050565b600081519050919050565b600082825260208201905092915050565b60006117c18261184a565b91506117cc8361184a565b9250827fffffffffffffffffffffffffffffffffffffffffffffffffffffffffffffffff03821115611801576118006118f7565b5b828201905092915050565b60006118178261182a565b9050919050565b60008115159050919050565b600073ffffffffffffffffffffffffffffffffffffffff82169050919050565b6000819050919050565b600060ff82169050919050565b60005b8381101561187f578082015181840152602081019050611864565b8381111561188e576000848401525b50505050565b600060028204905060018216806118ac57607f821691505b602082108114156118c0576118bf611926565b5b50919050565b6118cf82611984565b810181811067ffffffffffffffff821117156118ee576118ed611955565b5b80604052505050565b7f4e487b7100000000000000000000000000000000000000000000000000000000600052601160045260246000fd5b7f4e487b7100000000000000000000000000000000000000000000000000000000600052602260045260246000fd5b7f4e487b7100000000000000000000000000000000000000000000000000000000600052604160045260246000fd5b6000601f19601f8301169050919050565b7f45524332303a207472616e7366657220746f20746865207a65726f206164647260008201527f6573730000000000000000000000000000000000000000000000000000000000602082015250565b7f4f776e61626c653a206e6577206f776e657220697320746865207a65726f206160008201527f6464726573730000000000000000000000000000000000000000000000000000602082015250565b7f45524332303a20617070726f766520746f20746865207a65726f20616464726560008201527f7373000000000000000000000000000000000000000000000000000000000000602082015250565b7f45524332303a20696e73756666696369656e7420616c6c6f77616e6365000000600082015250565b7f45524332303a207472616e7366657220616d6f756e742065786365656473206260008201527f616c616e63650000000000000000000000000000000000000000000000000000602082015250565b7f436f6f6c646f776e20706572696f64206e6f742066696e697368656400000000600082015250565b7f4f776e61626c653a2063616c6c6572206973206e6f7420746865206f776e6572600082015250565b7f45524332303a207472616e736665722066726f6d20746865207a65726f20616460008201527f6472657373000000000000000000000000000000000000000000000000000000602082015250565b7f45524332303a20617070726f76652066726f6d20746865207a65726f2061646460008201527f7265737300000000000000000000000000000000000000000000000000000000602082015250565b7f45524332303a2064656372656173656420616c6c6f77616e63652062656c6f7760008201527f207a65726f000000000000000000000000000000000000000000000000000000602082015250565b7f45524332303a206d696e7420746f20746865207a65726f206164647265737300600082015250565b611c6b8161180c565b8114611c7657600080fd5b50565b611c828161184a565b8114611c8d57600080fd5b5056fea2646970667358221220539002de72366de85b37601391fe70ba40559e225d6bc4e8a8b8d0b79715bf1f64736f6c63430008040033",
    "linkReferences": {},
    "deployedLinkReferences": {}
}